{
  "contractName": "ItemManager",
  "abi": [
    {
      "anonymous": false,
      "inputs": [
        {
          "indexed": false,
          "internalType": "uint256",
          "name": "_itemindex",
          "type": "uint256"
        },
        {
          "indexed": false,
          "internalType": "uint256",
          "name": "_step",
          "type": "uint256"
        },
        {
          "indexed": false,
          "internalType": "address",
          "name": "_addr",
          "type": "address"
        }
      ],
      "name": "supplychainstep",
      "type": "event"
    },
    {
      "inputs": [],
      "name": "isOwner",
      "outputs": [
        {
          "internalType": "bool",
          "name": "",
          "type": "bool"
        }
      ],
      "stateMutability": "view",
      "type": "function",
      "constant": true
    },
    {
      "inputs": [
        {
          "internalType": "uint256",
          "name": "",
          "type": "uint256"
        }
      ],
      "name": "items",
      "outputs": [
        {
          "internalType": "contract item",
          "name": "_item",
          "type": "address"
        },
        {
          "internalType": "enum ItemManager.supplychainstate",
          "name": "_state",
          "type": "uint8"
        },
        {
          "internalType": "uint256",
          "name": "_price",
          "type": "uint256"
        },
        {
          "internalType": "string",
          "name": "_identifier",
          "type": "string"
        }
      ],
      "stateMutability": "view",
      "type": "function",
      "constant": true
    },
    {
      "inputs": [],
      "name": "owner",
      "outputs": [
        {
          "internalType": "address payable",
          "name": "",
          "type": "address"
        }
      ],
      "stateMutability": "view",
      "type": "function",
      "constant": true
    },
    {
      "inputs": [
        {
          "internalType": "string",
          "name": "_identifier",
          "type": "string"
        },
        {
          "internalType": "uint256",
          "name": "_itemprice",
          "type": "uint256"
        }
      ],
      "name": "createItem",
      "outputs": [],
      "stateMutability": "nonpayable",
      "type": "function"
    },
    {
      "inputs": [
        {
          "internalType": "uint256",
          "name": "_index",
          "type": "uint256"
        }
      ],
      "name": "triggerpayment",
      "outputs": [],
      "stateMutability": "payable",
      "type": "function",
      "payable": true
    },
    {
      "inputs": [
        {
          "internalType": "uint256",
          "name": "_index",
          "type": "uint256"
        }
      ],
      "name": "triggerdelivery",
      "outputs": [],
      "stateMutability": "nonpayable",
      "type": "function"
    }
  ],
  "bytecode": "0x608060405234801561001057600080fd5b50336000806101000a81548173ffffffffffffffffffffffffffffffffffffffff021916908373ffffffffffffffffffffffffffffffffffffffff1602179055506119a8806100606000396000f3fe6080604052600436106200005c5760003560e01c80638c55174214620000615780638da5cb5b146200008f5780638f32d59b14620000bf578063bfb231d214620000ef578063dc03e0621462000136578063eb86cf281462000164575b600080fd5b3480156200006e57600080fd5b506200008d600480360381019062000087919062000b4c565b62000184565b005b3480156200009c57600080fd5b50620000a7620003ca565b604051620000b6919062000bf7565b60405180910390f35b348015620000cc57600080fd5b50620000d7620003ee565b604051620000e6919062000c31565b60405180910390f35b348015620000fc57600080fd5b506200011b600480360381019062000115919062000c4e565b62000444565b6040516200012d949392919062000e0f565b60405180910390f35b3480156200014357600080fd5b506200016260048036038101906200015c919062000c4e565b62000531565b005b6200018260048036038101906200017c919062000c4e565b62000700565b005b6200018e620003ee565b620001d0576040517f08c379a0000000000000000000000000000000000000000000000000000000008152600401620001c79062000eb3565b60405180910390fd5b60003082600254604051620001e590620008dd565b620001f39392919062000f0e565b604051809103906000f08015801562000210573d6000803e3d6000fd5b5090508060016000600254815260200190815260200160002060000160006101000a81548173ffffffffffffffffffffffffffffffffffffffff021916908373ffffffffffffffffffffffffffffffffffffffff1602179055508160016000600254815260200190815260200160002060010181905550826001600060025481526020019081526020016000206002019080519060200190620002b5929190620008eb565b50600060016000600254815260200190815260200160002060000160146101000a81548160ff02191690836002811115620002f557620002f462000ceb565b5b02179055507f91cdadc070640dc18e97e8f8a06b6f34b2fb9bade33307766153cdd5592f592460025460016000600254815260200190815260200160002060000160149054906101000a900460ff16600281111562000359576200035862000ceb565b5b60016000600254815260200190815260200160002060000160009054906101000a900473ffffffffffffffffffffffffffffffffffffffff16604051620003a39392919062000f70565b60405180910390a160026000815480929190620003c09062000fdc565b9190505550505050565b60008054906101000a900473ffffffffffffffffffffffffffffffffffffffff1681565b60003373ffffffffffffffffffffffffffffffffffffffff1660008054906101000a900473ffffffffffffffffffffffffffffffffffffffff1673ffffffffffffffffffffffffffffffffffffffff1614905090565b60016020528060005260406000206000915090508060000160009054906101000a900473ffffffffffffffffffffffffffffffffffffffff16908060000160149054906101000a900460ff1690806001015490806002018054620004a89062001059565b80601f0160208091040260200160405190810160405280929190818152602001828054620004d69062001059565b8015620005275780601f10620004fb5761010080835404028352916020019162000527565b820191906000526020600020905b8154815290600101906020018083116200050957829003601f168201915b5050505050905084565b6200053b620003ee565b6200057d576040517f08c379a0000000000000000000000000000000000000000000000000000000008152600401620005749062000eb3565b60405180910390fd5b6001600281111562000594576200059362000ceb565b5b6001600083815260200190815260200160002060000160149054906101000a900460ff166002811115620005cd57620005cc62000ceb565b5b1462000610576040517f08c379a00000000000000000000000000000000000000000000000000000000081526004016200060790620010df565b60405180910390fd5b60026001600083815260200190815260200160002060000160146101000a81548160ff021916908360028111156200064d576200064c62000ceb565b5b02179055507f91cdadc070640dc18e97e8f8a06b6f34b2fb9bade33307766153cdd5592f5924816001600084815260200190815260200160002060000160149054906101000a900460ff166002811115620006ad57620006ac62000ceb565b5b6001600085815260200190815260200160002060000160009054906101000a900473ffffffffffffffffffffffffffffffffffffffff16604051620006f59392919062000f70565b60405180910390a150565b346001600083815260200190815260200160002060010154146200075b576040517f08c379a0000000000000000000000000000000000000000000000000000000008152600401620007529062001151565b60405180910390fd5b6000600281111562000772576200077162000ceb565b5b6001600083815260200190815260200160002060000160149054906101000a900460ff166002811115620007ab57620007aa62000ceb565b5b14620007ee576040517f08c379a0000000000000000000000000000000000000000000000000000000008152600401620007e590620011e9565b60405180910390fd5b600180600083815260200190815260200160002060000160146101000a81548160ff021916908360028111156200082a576200082962000ceb565b5b02179055507f91cdadc070640dc18e97e8f8a06b6f34b2fb9bade33307766153cdd5592f5924816001600084815260200190815260200160002060000160149054906101000a900460ff1660028111156200088a576200088962000ceb565b5b6001600085815260200190815260200160002060000160009054906101000a900473ffffffffffffffffffffffffffffffffffffffff16604051620008d29392919062000f70565b60405180910390a150565b610767806200120c83390190565b828054620008f99062001059565b90600052602060002090601f0160209004810192826200091d576000855562000969565b82601f106200093857805160ff191683800117855562000969565b8280016001018555821562000969579182015b82811115620009685782518255916020019190600101906200094b565b5b5090506200097891906200097c565b5090565b5b80821115620009975760008160009055506001016200097d565b5090565b6000604051905090565b600080fd5b600080fd5b600080fd5b600080fd5b6000601f19601f8301169050919050565b7f4e487b7100000000000000000000000000000000000000000000000000000000600052604160045260246000fd5b62000a0482620009b9565b810181811067ffffffffffffffff8211171562000a265762000a25620009ca565b5b80604052505050565b600062000a3b6200099b565b905062000a498282620009f9565b919050565b600067ffffffffffffffff82111562000a6c5762000a6b620009ca565b5b62000a7782620009b9565b9050602081019050919050565b82818337600083830152505050565b600062000aaa62000aa48462000a4e565b62000a2f565b90508281526020810184848401111562000ac95762000ac8620009b4565b5b62000ad684828562000a84565b509392505050565b600082601f83011262000af65762000af5620009af565b5b813562000b0884826020860162000a93565b91505092915050565b6000819050919050565b62000b268162000b11565b811462000b3257600080fd5b50565b60008135905062000b468162000b1b565b92915050565b6000806040838503121562000b665762000b65620009a5565b5b600083013567ffffffffffffffff81111562000b875762000b86620009aa565b5b62000b958582860162000ade565b925050602062000ba88582860162000b35565b9150509250929050565b600073ffffffffffffffffffffffffffffffffffffffff82169050919050565b600062000bdf8262000bb2565b9050919050565b62000bf18162000bd2565b82525050565b600060208201905062000c0e600083018462000be6565b92915050565b60008115159050919050565b62000c2b8162000c14565b82525050565b600060208201905062000c48600083018462000c20565b92915050565b60006020828403121562000c675762000c66620009a5565b5b600062000c778482850162000b35565b91505092915050565b6000819050919050565b600062000cab62000ca562000c9f8462000bb2565b62000c80565b62000bb2565b9050919050565b600062000cbf8262000c8a565b9050919050565b600062000cd38262000cb2565b9050919050565b62000ce58162000cc6565b82525050565b7f4e487b7100000000000000000000000000000000000000000000000000000000600052602160045260246000fd5b6003811062000d2e5762000d2d62000ceb565b5b50565b600081905062000d418262000d1a565b919050565b600062000d538262000d31565b9050919050565b62000d658162000d46565b82525050565b62000d768162000b11565b82525050565b600081519050919050565b600082825260208201905092915050565b60005b8381101562000db857808201518184015260208101905062000d9b565b8381111562000dc8576000848401525b50505050565b600062000ddb8262000d7c565b62000de7818562000d87565b935062000df981856020860162000d98565b62000e0481620009b9565b840191505092915050565b600060808201905062000e26600083018762000cda565b62000e35602083018662000d5a565b62000e44604083018562000d6b565b818103606083015262000e58818462000dce565b905095945050505050565b7f4e6f74206f776e65720000000000000000000000000000000000000000000000600082015250565b600062000e9b60098362000d87565b915062000ea88262000e63565b602082019050919050565b6000602082019050818103600083015262000ece8162000e8c565b9050919050565b600062000ee28262000c8a565b9050919050565b600062000ef68262000ed5565b9050919050565b62000f088162000ee9565b82525050565b600060608201905062000f25600083018662000efd565b62000f34602083018562000d6b565b62000f43604083018462000d6b565b949350505050565b600062000f588262000bb2565b9050919050565b62000f6a8162000f4b565b82525050565b600060608201905062000f87600083018662000d6b565b62000f96602083018562000d6b565b62000fa5604083018462000f5f565b949350505050565b7f4e487b7100000000000000000000000000000000000000000000000000000000600052601160045260246000fd5b600062000fe98262000b11565b91507fffffffffffffffffffffffffffffffffffffffffffffffffffffffffffffffff8214156200101f576200101e62000fad565b5b600182019050919050565b7f4e487b7100000000000000000000000000000000000000000000000000000000600052602260045260246000fd5b600060028204905060018216806200107257607f821691505b602082108114156200108957620010886200102a565b5b50919050565b7f596f752068617665206e6f742070616964207965740000000000000000000000600082015250565b6000620010c760158362000d87565b9150620010d4826200108f565b602082019050919050565b60006020820190508181036000830152620010fa81620010b8565b9050919050565b7f4e6f742076616c696420616d6f756e7400000000000000000000000000000000600082015250565b60006200113960108362000d87565b9150620011468262001101565b602082019050919050565b600060208201905081810360008301526200116c816200112a565b9050919050565b7f596f752063616e6e6f74206d6f7665206675727468657220696e20746865206360008201527f6172740000000000000000000000000000000000000000000000000000000000602082015250565b6000620011d160238362000d87565b9150620011de8262001173565b604082019050919050565b600060208201905081810360008301526200120481620011c2565b905091905056fe608060405234801561001057600080fd5b5060405161076738038061076783398181016040528101906100329190610134565b816000819055508060018190555082600360006101000a81548173ffffffffffffffffffffffffffffffffffffffff021916908373ffffffffffffffffffffffffffffffffffffffff160217905550505050610187565b600080fd5b600073ffffffffffffffffffffffffffffffffffffffff82169050919050565b60006100b98261008e565b9050919050565b60006100cb826100ae565b9050919050565b6100db816100c0565b81146100e657600080fd5b50565b6000815190506100f8816100d2565b92915050565b6000819050919050565b610111816100fe565b811461011c57600080fd5b50565b60008151905061012e81610108565b92915050565b60008060006060848603121561014d5761014c610089565b5b600061015b868287016100e9565b935050602061016c8682870161011f565b925050604061017d8682870161011f565b9150509250925092565b6105d1806101966000396000f3fe6080604052600436106100385760003560e01c80632986c0e5146102435780633c8da5881461026e5780637666c5a21461029957610241565b3661024157600060025414610082576040517f08c379a000000000000000000000000000000000000000000000000000000000815260040161007990610333565b60405180910390fd5b34600054146100c6576040517f08c379a00000000000000000000000000000000000000000000000000000000081526004016100bd9061039f565b60405180910390fd5b34600260008282546100d891906103f8565b925050819055506000600360009054906101000a900473ffffffffffffffffffffffffffffffffffffffff1673ffffffffffffffffffffffffffffffffffffffff163460015460405160240161012e919061045d565b6040516020818303038152906040527feb86cf28000000000000000000000000000000000000000000000000000000007bffffffffffffffffffffffffffffffffffffffffffffffffffffffff19166020820180517bffffffffffffffffffffffffffffffffffffffffffffffffffffffff83818316178352505050506040516101b891906104f2565b60006040518083038185875af1925050503d80600081146101f5576040519150601f19603f3d011682016040523d82523d6000602084013e6101fa565b606091505b505090508061023e576040517f08c379a00000000000000000000000000000000000000000000000000000000081526004016102359061057b565b60405180910390fd5b50005b005b34801561024f57600080fd5b506102586102c4565b604051610265919061045d565b60405180910390f35b34801561027a57600080fd5b506102836102ca565b604051610290919061045d565b60405180910390f35b3480156102a557600080fd5b506102ae6102d0565b6040516102bb919061045d565b60405180910390f35b60015481565b60005481565b60025481565b600082825260208201905092915050565b7f416c726561647920706169640000000000000000000000000000000000000000600082015250565b600061031d600c836102d6565b9150610328826102e7565b602082019050919050565b6000602082019050818103600083015261034c81610310565b9050919050565b7f4f6e6c792066756c6c207061796d656e74732061636365707465640000000000600082015250565b6000610389601b836102d6565b915061039482610353565b602082019050919050565b600060208201905081810360008301526103b88161037c565b9050919050565b6000819050919050565b7f4e487b7100000000000000000000000000000000000000000000000000000000600052601160045260246000fd5b6000610403826103bf565b915061040e836103bf565b9250827fffffffffffffffffffffffffffffffffffffffffffffffffffffffffffffffff03821115610443576104426103c9565b5b828201905092915050565b610457816103bf565b82525050565b6000602082019050610472600083018461044e565b92915050565b600081519050919050565b600081905092915050565b60005b838110156104ac578082015181840152602081019050610491565b838111156104bb576000848401525b50505050565b60006104cc82610478565b6104d68185610483565b93506104e681856020860161048e565b80840191505092915050565b60006104fe82846104c1565b915081905092915050565b7f596f7572207472616e73616374696f6e206973206e6f7420737563636573736660008201527f756c000000000000000000000000000000000000000000000000000000000000602082015250565b60006105656022836102d6565b915061057082610509565b604082019050919050565b6000602082019050818103600083015261059481610558565b905091905056fea2646970667358221220a6056d62e3ff1736fe23e4ca0591e89651b359a7a00bac7e682f78fef37962a764736f6c634300080a0033a26469706673582212201ac288ee58408fb6b7bed4b8026f0e614735efa69e85c69e1384768ace5ad00b64736f6c634300080a0033",
  "immutableReferences": {},
  "source": "//SPDX-License-Identifier: MIT\r\n\r\npragma solidity  0.8.10;\r\n\r\nimport \"./owned.sol\";\r\nimport \"./item.sol\";\r\ncontract ItemManager is owned {\r\n    enum supplychainstate{Created, Paid, Delivered}\r\n    struct itemdetails{\r\n        item _item;\r\n        supplychainstate _state;\r\n        uint _price;\r\n        string _identifier;\r\n    }\r\n    mapping(uint => itemdetails) public items;\r\n    uint index;\r\n    event supplychainstep(uint _itemindex, uint _step, address _addr);\r\n    function createItem(string memory _identifier, uint _itemprice) public ownedbyme{\r\n        item Item = new item(this, _itemprice, index);\r\n        items[index]._item = Item;\r\n        items[index]._price = _itemprice;\r\n        items[index]._identifier = _identifier;\r\n        items[index]._state = supplychainstate.Created;\r\n        emit supplychainstep(index, uint(items[index]._state), address(items[index]._item));\r\n        index++;\r\n    }\r\n    function triggerpayment(uint _index) public payable{\r\n        require(items[_index]._price == msg.value, \"Not valid amount\");\r\n        require(items[_index]._state == supplychainstate.Created, \"You cannot move further in the cart\");\r\n        items[_index]._state = supplychainstate.Paid;\r\n        emit supplychainstep(_index, uint(items[_index]._state), address(items[_index]._item));\r\n    }\r\n    function triggerdelivery(uint _index) public ownedbyme{\r\n       require(items[_index]._state == supplychainstate.Paid, \"You have not paid yet\");   \r\n       items[_index]._state = supplychainstate.Delivered;\r\n       emit supplychainstep(_index, uint(items[_index]._state), address(items[_index]._item));\r\n    }\r\n}",
  "sourcePath": "C:\\Users\\VVG Sai Sreekar\\s06-eventtriger\\contracts\\itemManager.sol",
  "compiler": {
    "name": "solc",
    "version": "0.8.10+commit.fc410830.Emscripten.clang"
  },
  "schemaVersion": "3.4.3",
  "updatedAt": "2021-12-06T16:12:21.502Z",
  "networkType": "ethereum",
  "devdoc": {
    "kind": "dev",
    "methods": {},
    "version": 1
  },
  "userdoc": {
    "kind": "user",
    "methods": {},
    "version": 1
  }
}