{
  "contractName": "item",
  "abi": [
    {
      "inputs": [
        {
          "internalType": "contract ItemManager",
          "name": "_parentContract",
          "type": "address"
        },
        {
          "internalType": "uint256",
          "name": "_priceInWei",
          "type": "uint256"
        },
        {
          "internalType": "uint256",
          "name": "_index",
          "type": "uint256"
        }
      ],
      "stateMutability": "nonpayable",
      "type": "constructor"
    },
    {
      "stateMutability": "payable",
      "type": "fallback"
    },
    {
      "inputs": [],
      "name": "index",
      "outputs": [
        {
          "internalType": "uint256",
          "name": "",
          "type": "uint256"
        }
      ],
      "stateMutability": "view",
      "type": "function"
    },
    {
      "inputs": [],
      "name": "priceInWei",
      "outputs": [
        {
          "internalType": "uint256",
          "name": "",
          "type": "uint256"
        }
      ],
      "stateMutability": "view",
      "type": "function"
    },
    {
      "inputs": [],
      "name": "pricepaid",
      "outputs": [
        {
          "internalType": "uint256",
          "name": "",
          "type": "uint256"
        }
      ],
      "stateMutability": "view",
      "type": "function"
    },
    {
      "stateMutability": "payable",
      "type": "receive"
    }
  ],
  "bytecode": "0x608060405234801561001057600080fd5b5060405161076738038061076783398181016040528101906100329190610134565b816000819055508060018190555082600360006101000a81548173ffffffffffffffffffffffffffffffffffffffff021916908373ffffffffffffffffffffffffffffffffffffffff160217905550505050610187565b600080fd5b600073ffffffffffffffffffffffffffffffffffffffff82169050919050565b60006100b98261008e565b9050919050565b60006100cb826100ae565b9050919050565b6100db816100c0565b81146100e657600080fd5b50565b6000815190506100f8816100d2565b92915050565b6000819050919050565b610111816100fe565b811461011c57600080fd5b50565b60008151905061012e81610108565b92915050565b60008060006060848603121561014d5761014c610089565b5b600061015b868287016100e9565b935050602061016c8682870161011f565b925050604061017d8682870161011f565b9150509250925092565b6105d1806101966000396000f3fe6080604052600436106100385760003560e01c80632986c0e5146102435780633c8da5881461026e5780637666c5a21461029957610241565b3661024157600060025414610082576040517f08c379a000000000000000000000000000000000000000000000000000000000815260040161007990610333565b60405180910390fd5b34600054146100c6576040517f08c379a00000000000000000000000000000000000000000000000000000000081526004016100bd9061039f565b60405180910390fd5b34600260008282546100d891906103f8565b925050819055506000600360009054906101000a900473ffffffffffffffffffffffffffffffffffffffff1673ffffffffffffffffffffffffffffffffffffffff163460015460405160240161012e919061045d565b6040516020818303038152906040527feb86cf28000000000000000000000000000000000000000000000000000000007bffffffffffffffffffffffffffffffffffffffffffffffffffffffff19166020820180517bffffffffffffffffffffffffffffffffffffffffffffffffffffffff83818316178352505050506040516101b891906104f2565b60006040518083038185875af1925050503d80600081146101f5576040519150601f19603f3d011682016040523d82523d6000602084013e6101fa565b606091505b505090508061023e576040517f08c379a00000000000000000000000000000000000000000000000000000000081526004016102359061057b565b60405180910390fd5b50005b005b34801561024f57600080fd5b506102586102c4565b604051610265919061045d565b60405180910390f35b34801561027a57600080fd5b506102836102ca565b604051610290919061045d565b60405180910390f35b3480156102a557600080fd5b506102ae6102d0565b6040516102bb919061045d565b60405180910390f35b60015481565b60005481565b60025481565b600082825260208201905092915050565b7f416c726561647920706169640000000000000000000000000000000000000000600082015250565b600061031d600c836102d6565b9150610328826102e7565b602082019050919050565b6000602082019050818103600083015261034c81610310565b9050919050565b7f4f6e6c792066756c6c207061796d656e74732061636365707465640000000000600082015250565b6000610389601b836102d6565b915061039482610353565b602082019050919050565b600060208201905081810360008301526103b88161037c565b9050919050565b6000819050919050565b7f4e487b7100000000000000000000000000000000000000000000000000000000600052601160045260246000fd5b6000610403826103bf565b915061040e836103bf565b9250827fffffffffffffffffffffffffffffffffffffffffffffffffffffffffffffffff03821115610443576104426103c9565b5b828201905092915050565b610457816103bf565b82525050565b6000602082019050610472600083018461044e565b92915050565b600081519050919050565b600081905092915050565b60005b838110156104ac578082015181840152602081019050610491565b838111156104bb576000848401525b50505050565b60006104cc82610478565b6104d68185610483565b93506104e681856020860161048e565b80840191505092915050565b60006104fe82846104c1565b915081905092915050565b7f596f7572207472616e73616374696f6e206973206e6f7420737563636573736660008201527f756c000000000000000000000000000000000000000000000000000000000000602082015250565b60006105656022836102d6565b915061057082610509565b604082019050919050565b6000602082019050818103600083015261059481610558565b905091905056fea2646970667358221220a6056d62e3ff1736fe23e4ca0591e89651b359a7a00bac7e682f78fef37962a764736f6c634300080a0033",
  "immutableReferences": {},
  "source": "//SPDX-License-Identifier: MIT\r\n\r\npragma solidity  0.8.10;\r\n\r\nimport \"./itemManager.sol\";\r\ncontract item {\r\n    uint public priceInWei;\r\n    uint public index;\r\n    uint public pricepaid;\r\n    ItemManager parentContract;\r\n    constructor(ItemManager _parentContract, uint _priceInWei, uint _index){\r\n        priceInWei = _priceInWei;\r\n        index = _index;\r\n        parentContract =_parentContract;\r\n    }\r\n    receive() external payable {\r\n        require(pricepaid == 0, \"Already paid\");\r\n        require(priceInWei == msg.value, \"Only full payments accepted\");\r\n        pricepaid += msg.value;\r\n        (bool success, ) = address(parentContract).call{value:msg.value}(abi.encodeWithSignature(\"triggerpayment(uint256)\", index));\r\n        require(success, \"Your transaction is not successful\");\r\n    }\r\n    fallback() external payable {}\r\n}",
  "sourcePath": "C:\\Users\\VVG Sai Sreekar\\s06-eventtriger\\contracts\\item.sol",
  "compiler": {
    "name": "solc",
    "version": "0.8.10+commit.fc410830.Emscripten.clang"
  },
  "schemaVersion": "3.4.3",
  "updatedAt": "2021-12-06T16:12:18.827Z",
  "devdoc": {
    "kind": "dev",
    "methods": {},
    "version": 1
  },
  "userdoc": {
    "kind": "user",
    "methods": {},
    "version": 1
  }
}