{
  "contractName": "owned",
  "abi": [
    {
      "inputs": [],
      "stateMutability": "nonpayable",
      "type": "constructor"
    },
    {
      "inputs": [],
      "name": "owner",
      "outputs": [
        {
          "internalType": "address payable",
          "name": "",
          "type": "address"
        }
      ],
      "stateMutability": "view",
      "type": "function"
    },
    {
      "inputs": [],
      "name": "isOwner",
      "outputs": [
        {
          "internalType": "bool",
          "name": "",
          "type": "bool"
        }
      ],
      "stateMutability": "view",
      "type": "function"
    }
  ],
  "bytecode": "0x608060405234801561001057600080fd5b50336000806101000a81548173ffffffffffffffffffffffffffffffffffffffff021916908373ffffffffffffffffffffffffffffffffffffffff1602179055506101b9806100606000396000f3fe608060405234801561001057600080fd5b50600436106100365760003560e01c80638da5cb5b1461003b5780638f32d59b14610059575b600080fd5b610043610077565b6040516100509190610132565b60405180910390f35b61006161009b565b60405161006e9190610168565b60405180910390f35b60008054906101000a900473ffffffffffffffffffffffffffffffffffffffff1681565b60003373ffffffffffffffffffffffffffffffffffffffff1660008054906101000a900473ffffffffffffffffffffffffffffffffffffffff1673ffffffffffffffffffffffffffffffffffffffff1614905090565b600073ffffffffffffffffffffffffffffffffffffffff82169050919050565b600061011c826100f1565b9050919050565b61012c81610111565b82525050565b60006020820190506101476000830184610123565b92915050565b60008115159050919050565b6101628161014d565b82525050565b600060208201905061017d6000830184610159565b9291505056fea2646970667358221220ab1573def0f64cbf20ae7745e9a4bcfef8ec9d65de837dad26c60ac63cef6a1664736f6c634300080a0033",
  "immutableReferences": {},
  "source": "//SPDX-License-Identifier: MIT\r\n\r\npragma solidity  0.8.10;\r\n\r\ncontract owned {\r\n    address payable public owner;\r\n    constructor () {\r\n        owner = payable(msg.sender);\r\n    }\r\n    modifier ownedbyme() {\r\n       require(isOwner(), \"Not owner\");\r\n        _;\r\n    } \r\n    function isOwner() public view returns(bool){\r\n        return owner == msg.sender;\r\n    }  \r\n}",
  "sourcePath": "C:\\Users\\VVG Sai Sreekar\\s06-eventtriger\\contracts\\owned.sol",
  "compiler": {
    "name": "solc",
    "version": "0.8.10+commit.fc410830.Emscripten.clang"
  },
  "schemaVersion": "3.4.3",
  "updatedAt": "2021-12-06T16:12:18.841Z",
  "devdoc": {
    "kind": "dev",
    "methods": {},
    "version": 1
  },
  "userdoc": {
    "kind": "user",
    "methods": {},
    "version": 1
  }
}